{
  "address": "0xAB5580a4eB885cE55bc53778450eB038F359f998",
  "abi": [
    {
      "inputs": [
        {
          "internalType": "address",
          "name": "_tokenA",
          "type": "address"
        },
        {
          "internalType": "address",
          "name": "_tokenB",
          "type": "address"
        }
      ],
      "stateMutability": "nonpayable",
      "type": "constructor"
    },
    {
      "anonymous": false,
      "inputs": [
        {
          "indexed": true,
          "internalType": "address",
          "name": "provider",
          "type": "address"
        },
        {
          "indexed": false,
          "internalType": "uint256",
          "name": "amountA",
          "type": "uint256"
        },
        {
          "indexed": false,
          "internalType": "uint256",
          "name": "amountB",
          "type": "uint256"
        }
      ],
      "name": "LiquidityAdded",
      "type": "event"
    },
    {
      "anonymous": false,
      "inputs": [
        {
          "indexed": true,
          "internalType": "address",
          "name": "provider",
          "type": "address"
        },
        {
          "indexed": false,
          "internalType": "uint256",
          "name": "amountA",
          "type": "uint256"
        },
        {
          "indexed": false,
          "internalType": "uint256",
          "name": "amountB",
          "type": "uint256"
        }
      ],
      "name": "RemoveLiquidity",
      "type": "event"
    },
    {
      "anonymous": false,
      "inputs": [
        {
          "indexed": true,
          "internalType": "address",
          "name": "trader",
          "type": "address"
        },
        {
          "indexed": false,
          "internalType": "uint256",
          "name": "amountAIn",
          "type": "uint256"
        },
        {
          "indexed": false,
          "internalType": "uint256",
          "name": "amountBOut",
          "type": "uint256"
        }
      ],
      "name": "SwapAforB",
      "type": "event"
    },
    {
      "anonymous": false,
      "inputs": [
        {
          "indexed": true,
          "internalType": "address",
          "name": "trader",
          "type": "address"
        },
        {
          "indexed": false,
          "internalType": "uint256",
          "name": "amountBIn",
          "type": "uint256"
        },
        {
          "indexed": false,
          "internalType": "uint256",
          "name": "amountAOut",
          "type": "uint256"
        }
      ],
      "name": "SwapBforA",
      "type": "event"
    },
    {
      "inputs": [
        {
          "internalType": "uint256",
          "name": "amountA",
          "type": "uint256"
        },
        {
          "internalType": "uint256",
          "name": "amountB",
          "type": "uint256"
        }
      ],
      "name": "addLiquidity",
      "outputs": [],
      "stateMutability": "nonpayable",
      "type": "function"
    },
    {
      "inputs": [
        {
          "internalType": "address",
          "name": "_token",
          "type": "address"
        }
      ],
      "name": "getPrice",
      "outputs": [
        {
          "internalType": "uint256",
          "name": "",
          "type": "uint256"
        }
      ],
      "stateMutability": "view",
      "type": "function"
    },
    {
      "inputs": [],
      "name": "owner",
      "outputs": [
        {
          "internalType": "address",
          "name": "",
          "type": "address"
        }
      ],
      "stateMutability": "view",
      "type": "function"
    },
    {
      "inputs": [
        {
          "internalType": "uint256",
          "name": "amountA",
          "type": "uint256"
        },
        {
          "internalType": "uint256",
          "name": "amountB",
          "type": "uint256"
        }
      ],
      "name": "removeLiquidity",
      "outputs": [],
      "stateMutability": "nonpayable",
      "type": "function"
    },
    {
      "inputs": [
        {
          "internalType": "uint256",
          "name": "amountAIn",
          "type": "uint256"
        }
      ],
      "name": "swapAforB",
      "outputs": [],
      "stateMutability": "nonpayable",
      "type": "function"
    },
    {
      "inputs": [
        {
          "internalType": "uint256",
          "name": "amountBIn",
          "type": "uint256"
        }
      ],
      "name": "swapBforA",
      "outputs": [],
      "stateMutability": "nonpayable",
      "type": "function"
    }
  ],
  "transactionHash": "0x3eeca390e3ba4c849c740ee3f6035ff31590a944b2bb710fcbefe518849fba7f",
  "args": [
    "0x0398513e051682Bee553775FEEfDC253Fd662C10",
    "0x4Ef81B0186DCC93b26A2aF1ec4a6c085044f9420"
  ],
  "numDeployments": 1,
  "solcInputHash": "2aaef179257a6cb9d3f1a1e6cbff09e3",
  "bytecode": "0x608060405234801561001057600080fd5b5060405161107538038061107583398101604081905261002f9161008c565b600080546001600160a01b039384166001600160a01b03199182161790915560018054929093169181169190911790915560028054909116331790556100bf565b80516001600160a01b038116811461008757600080fd5b919050565b6000806040838503121561009f57600080fd5b6100a883610070565b91506100b660208401610070565b90509250929050565b610fa7806100ce6000396000f3fe608060405234801561001057600080fd5b50600436106100625760003560e01c806341976e09146100675780638014a7aa1461008d5780638da5cb5b146100a25780639cd441da146100cd5780639d7de6b3146100e0578063e4f1f70a146100f3575b600080fd5b61007a610075366004610d85565b610106565b6040519081526020015b60405180910390f35b6100a061009b366004610db5565b61030f565b005b6002546100b5906001600160a01b031681565b6040516001600160a01b039091168152602001610084565b6100a06100db366004610dce565b6106da565b6100a06100ee366004610dce565b610855565b6100a0610101366004610db5565b6109c4565b600080546001600160a01b038381169116148061013057506001546001600160a01b038381169116145b6101775760405162461bcd60e51b8152602060048201526013602482015272151bdad95b881b9bdd081cdd5c1c1bdc9d1959606a1b60448201526064015b60405180910390fd5b600080546040516370a0823160e01b81523060048201526001600160a01b03909116906370a0823190602401602060405180830381865afa1580156101c0573d6000803e3d6000fd5b505050506040513d601f19601f820116820180604052508101906101e49190610df0565b6001546040516370a0823160e01b81523060048201529192506000916001600160a01b03909116906370a0823190602401602060405180830381865afa158015610232573d6000803e3d6000fd5b505050506040513d601f19601f820116820180604052508101906102569190610df0565b90506000821180156102685750600081115b6102ac5760405162461bcd60e51b8152602060048201526015602482015274496e73756666696369656e7420726573657276657360581b604482015260640161016e565b600080546001600160a01b03908116908616036102e757826102d683670de0b6b3a7640000610e1f565b6102e09190610e3c565b9050610307565b816102fa84670de0b6b3a7640000610e1f565b6103049190610e3c565b90505b949350505050565b600081116103735760405162461bcd60e51b815260206004820152602b60248201527f54686520616d6f756e74206f6620546f6b656e42206d7573742062652067726560448201526a061746572207468616e20360ac1b606482015260840161016e565b600080546040516370a0823160e01b815230600482015282916001600160a01b0316906370a0823190602401602060405180830381865afa1580156103bc573d6000803e3d6000fd5b505050506040513d601f19601f820116820180604052508101906103e09190610df0565b6001546040516370a0823160e01b81523060048201529193506001600160a01b0316906370a0823190602401602060405180830381865afa158015610429573d6000803e3d6000fd5b505050506040513d601f19601f8201168201806040525081019061044d9190610df0565b905060008211801561045f5750600081115b61047b5760405162461bcd60e51b815260040161016e90610e5e565b60006104878483610ea5565b6104918385610e1f565b61049b9190610e3c565b6104a59084610eb8565b9050600081116105135760405162461bcd60e51b815260206004820152603360248201527f546865206f757470757420616d6f756e74206f6620746f6b656e2041206d75736044820152720742062652067726561746572207468616e203606c1b606482015260840161016e565b828111156105745760405162461bcd60e51b815260206004820152602860248201527f54686520636f6e747261637420646f6573206e6f74206861766520656e6f75676044820152676820746f6b656e4160c01b606482015260840161016e565b6001546040516323b872dd60e01b81526001600160a01b03909116906323b872dd906105a890339030908990600401610ecb565b6020604051808303816000875af11580156105c7573d6000803e3d6000fd5b505050506040513d601f19601f820116820180604052508101906105eb9190610eef565b6106075760405162461bcd60e51b815260040161016e90610f11565b60005460405163a9059cbb60e01b8152336004820152602481018390526001600160a01b039091169063a9059cbb906044016020604051808303816000875af1158015610658573d6000803e3d6000fd5b505050506040513d601f19601f8201168201806040525081019061067c9190610eef565b6106985760405162461bcd60e51b815260040161016e90610f41565b604080518581526020810183905233917f18d89124d3f604d784e6ec54f7e2c6a8487fb2bff658ff580c4abbcb5088ad9b91015b60405180910390a250505050565b6000546002546040516323b872dd60e01b81526001600160a01b03928316926323b872dd926107129291169030908790600401610ecb565b6020604051808303816000875af1158015610731573d6000803e3d6000fd5b505050506040513d601f19601f820116820180604052508101906107559190610eef565b6107715760405162461bcd60e51b815260040161016e90610f41565b6001546002546040516323b872dd60e01b81526001600160a01b03928316926323b872dd926107a99291169030908690600401610ecb565b6020604051808303816000875af11580156107c8573d6000803e3d6000fd5b505050506040513d601f19601f820116820180604052508101906107ec9190610eef565b6108085760405162461bcd60e51b815260040161016e90610f11565b60025460408051848152602081018490526001600160a01b03909216917fac1d76749e5447b7b16f5ab61447e1bd502f3bb4807af3b28e620d1700a6ee4591015b60405180910390a25050565b60005460025460405163a9059cbb60e01b81526001600160a01b0391821660048201526024810185905291169063a9059cbb906044016020604051808303816000875af11580156108aa573d6000803e3d6000fd5b505050506040513d601f19601f820116820180604052508101906108ce9190610eef565b6108ea5760405162461bcd60e51b815260040161016e90610f41565b60015460025460405163a9059cbb60e01b81526001600160a01b0391821660048201526024810184905291169063a9059cbb906044016020604051808303816000875af115801561093f573d6000803e3d6000fd5b505050506040513d601f19601f820116820180604052508101906109639190610eef565b61097f5760405162461bcd60e51b815260040161016e90610f11565b60025460408051848152602081018490526001600160a01b03909216917f0fbf06c058b90cb038a618f8c2acbf6145f8b3570fd1fa56abb8f0f3f05b36e89101610849565b60008111610a285760405162461bcd60e51b815260206004820152602b60248201527f54686520616d6f756e74206f6620546f6b656e41206d7573742062652067726560448201526a061746572207468616e20360ac1b606482015260840161016e565b600080546040516370a0823160e01b815230600482015282916001600160a01b0316906370a0823190602401602060405180830381865afa158015610a71573d6000803e3d6000fd5b505050506040513d601f19601f82011682018060405250810190610a959190610df0565b6001546040516370a0823160e01b81523060048201529193506001600160a01b0316906370a0823190602401602060405180830381865afa158015610ade573d6000803e3d6000fd5b505050506040513d601f19601f82011682018060405250810190610b029190610df0565b9050600082118015610b145750600081115b610b305760405162461bcd60e51b815260040161016e90610e5e565b6000610b3c8484610ea5565b610b468385610e1f565b610b509190610e3c565b610b5a9083610eb8565b905060008111610bc85760405162461bcd60e51b815260206004820152603360248201527f546865206f757470757420616d6f756e74206f6620746f6b656e2042206d75736044820152720742062652067726561746572207468616e203606c1b606482015260840161016e565b81811115610c295760405162461bcd60e51b815260206004820152602860248201527f54686520636f6e747261637420646f6573206e6f74206861766520656e6f756760448201526734102a37b5b2b72160c11b606482015260840161016e565b6000546040516323b872dd60e01b81526001600160a01b03909116906323b872dd90610c5d90339030908990600401610ecb565b6020604051808303816000875af1158015610c7c573d6000803e3d6000fd5b505050506040513d601f19601f82011682018060405250810190610ca09190610eef565b610cbc5760405162461bcd60e51b815260040161016e90610f41565b60015460405163a9059cbb60e01b8152336004820152602481018390526001600160a01b039091169063a9059cbb906044016020604051808303816000875af1158015610d0d573d6000803e3d6000fd5b505050506040513d601f19601f82011682018060405250810190610d319190610eef565b610d4d5760405162461bcd60e51b815260040161016e90610f11565b604080518581526020810183905233917fa73f8333ff34c4a2ca3172ce0c0ae8b5aa54bc107b961b36fb0cc6818c4e83e091016106cc565b600060208284031215610d9757600080fd5b81356001600160a01b0381168114610dae57600080fd5b9392505050565b600060208284031215610dc757600080fd5b5035919050565b60008060408385031215610de157600080fd5b50508035926020909101359150565b600060208284031215610e0257600080fd5b5051919050565b634e487b7160e01b600052601160045260246000fd5b8082028115828204841417610e3657610e36610e09565b92915050565b600082610e5957634e487b7160e01b600052601260045260246000fd5b500490565b60208082526027908201527f54686520706f6f6c20646f6573206e6f74206861766520656e6f756768206c696040820152667175696469747960c81b606082015260800190565b80820180821115610e3657610e36610e09565b81810381811115610e3657610e36610e09565b6001600160a01b039384168152919092166020820152604081019190915260600190565b600060208284031215610f0157600080fd5b81518015158114610dae57600080fd5b602080825260169082015275151bdad95b90881d1c985b9cd9995c8819985a5b195960521b604082015260600190565b602080825260169082015275151bdad95b90481d1c985b9cd9995c8819985a5b195960521b60408201526060019056fea2646970667358221220359ebf88162313afa1acf8772777cd96cd26e94728a4a956ad13bd0dd4aa64ff64736f6c63430008140033",
  "devdoc": {
    "kind": "dev",
    "methods": {},
    "version": 1
  },
  "userdoc": {
    "kind": "user",
    "methods": {},
    "version": 1
  },
  "storageLayout": {
    "storage": [
      {
        "astId": 792,
        "contract": "contracts/SimpleD.sol:SimpleD",
        "label": "tk1",
        "offset": 0,
        "slot": "0",
        "type": "t_contract(IERC20)729"
      },
      {
        "astId": 795,
        "contract": "contracts/SimpleD.sol:SimpleD",
        "label": "tk2",
        "offset": 0,
        "slot": "1",
        "type": "t_contract(IERC20)729"
      },
      {
        "astId": 797,
        "contract": "contracts/SimpleD.sol:SimpleD",
        "label": "owner",
        "offset": 0,
        "slot": "2",
        "type": "t_address"
      }
    ],
    "types": {
      "t_address": {
        "encoding": "inplace",
        "label": "address",
        "numberOfBytes": "20"
      },
      "t_contract(IERC20)729": {
        "encoding": "inplace",
        "label": "contract IERC20",
        "numberOfBytes": "20"
      }
    }
  }
}